:020000040800F2
:10000000B1AA010000000000000000000000000094
:1000100000000000000000000000000000000000E0
:1000200000000000000000000000000000000000D0
:1000300000000000000000000000000000000000C0
:1000400000000000000000000000000000000000B0
:1000500000000000000000000000000000000000A0
:100060000000000000000000000000000000000090
:100070000000000000000000000000000000000080
:100080000000000000000000000000000000000070
:100090000000000000000000000000000000000060
:1000A0000000000000000000000000000000000050
:1000B0000000000000000000000000000000000040
:1000C0000000000000000000000000000000000030
:1000D0000000000000000000000000000000000020
:1000E0000000000000000000000000000000000010
:1000F0000000000000000000000000000000000000
:1001000000000000000000000000000000000000EF
:1001100000000000000000000000000000000000DF
:1001200000000000000000000000000000000000CF
:1001300000000000000000000000000000000000BF
:1001400000000000000000000000000000000000AF
:100150000000000000000000000000007370043088
:10016000170500001305C5FF8545F605637BB5003F
:1001700089816378B500170500001305C5002E9529
:1001800002859302002073A0027D970200009382F3
:1001900062E7739072309732000093826226739008
:1001A000C27E73E0C07E973200009382A21D7390DE
:1001B0005230970100189381E16A178100181301EA
:1001C00061E417750000130525D69705001893857F
:1001D00065E31386419763FAC5008322050023A0D7
:1001E000550011059105E3EAC5FE138541979385F6
:1001F00081A16377B500232005001105E36DB5FEED
:1002000073F00232173500001305E537EF30203464
:10021000EF30E03A01458145EF10400A6F30C033BE
:1002200001A073E00232828073F00232828000000B
:1002400074696D6520256C6C75202020202020208D
:10025000202020202020000074696D65202578254D
:100260003038782020202020200000000008020ADA
:100270000C040E06030B01090F070D05000000001A
:100280000000000000000000000000000000000866
:1002900008080808080800001818000000486C2426
:1002A0001200000000000000000000000000002418
:1002B00024247F1212127F12121200000000081C68
:1002C0002A2A0A0C1828282A2A1C080800000022BA
:1002D000251515152A585454542200000000000C0E
:1002E0001212120A76252911916E000000060604EA
:1002F000030000000000000000000000004020108B
:10030000100808080808081010204000000204081F
:10031000081010101010100808040200000000005F
:1003200008086B1C1C6B080800000000000000009F
:10033000080808087F0808080800000000000000FE
:10034000000000000000000006060403000000009A
:1003500000000000FE00000000000000000000009F
:1003600000000000000000000606000000008040C1
:1003700040202010100808040402020000000018A9
:100380002442424242424242241800000000000837
:100390000E08080808080808083E00000000003C95
:1003A0004242422020100804427E00000000003C2F
:1003B0004242201820404042221C00000000002041
:1003C0003028242422227E20207800000000007E95
:1003D0000202021A26404042221C0000000000389F
:1003E0002402021A26424242241800000000007E25
:1003F0002222101008080808080800000000003C2D
:100400004242422418244242423C000000000018AC
:100410002442424264584040241C00000000000076
:10042000000018180000000018180000000000006C
:100430000000000800000000000808040000004060
:1004400020100804020408102040000000000000F2
:1004500000007F0000007F0000000000000000029C
:100460000408102040201008040200000000003C96
:100470004242464020101000181800000000001CE6
:10048000225A555555552D42221C000000000008E7
:1004900008181414243C224242E700000000001F08
:1004A0002222221E22424242221F00000000007C23
:1004B0004242010101010142221C00000000001F14
:1004C0002242424242424242221F00000000003FBC
:1004D0004212121E12120242423F00000000003F70
:1004E0004212121E12120202020700000000003C1B
:1004F0002222010101712122221C0000000000E7DC
:10050000424242427E42424242E700000000003E38
:100510000808080808080808083E00000000007CD9
:1005200010101010101010101010110F0000007794
:1005300022120A0E0A12122222770000000000077F
:100540000202020202020202427F00000000007763
:10055000363636362A2A2A2A2A6B0000000000E3A3
:1005600046464A4A52525262624700000000001C4E
:100570002241414141414141221C00000000003F15
:10058000424242423E020202020700000000001CFA
:100590002241414141414D53321C60000000003F67
:1005A0004242423E1212222242C700000000007C5A
:1005B0004242020418204042423E00000000007FF8
:1005C0004908080808080808081C0000000000E79F
:1005D0004242424242424242423C0000000000E7A6
:1005E0004242222424141418080800000000006B62
:1005F000494949495555362222220000000000E7AA
:10060000422424181818242442E700000000007730
:100610002222141408080808081C00000000007EAC
:100620002120101008040442423F0000007808080E
:1006300008080808080808080808780000000202EE
:10064000040408080810102020204040001E10104C
:10065000101010101010101010101E000038440060
:10066000000000000000000000000000000000008A
:100670000000000000000000000000FF000608006D
:10068000000000000000000000000000000000006A
:100690000000003C4278444242FC0000000000039D
:1006A0000202021A26424242261A000000000000FE
:1006B00000000038440202024438000000000060DC
:1006C000404040784442424264D8000000000000AC
:1006D0000000003C427E0202423C0000000000F0AC
:1006E0008808087E08080808083E0000000000008E
:1006F0000000007C22221C023C42423C000000031D
:100700000202023A4642424242E700000000000C68
:100710000C00000E08080808083E00000000003029
:1007200030000038202020202020221E000000035E
:1007300002020272120A1612227700000000000E56
:100740000808080808080808083E00000000000023
:100750000000007F9292929292B700000000000089
:100760000000003B4642424242E700000000000019
:100770000000003C42424242423C000000000000B7
:100780000000001B26424242221E02070000000019
:100790000000007844424242447840E000000000FB
:1007A000000000774C040404041F00000000000057
:1007B0000000007C42023C40423E0000000000007D
:1007C0000008083E08080808083000000000000083
:1007D000000000634242424262DC00000000000070
:1007E000000000E742242414080800000000000074
:1007F000000000EB4949555522220000000000008E
:100800000000007624181818246E00000000000074
:10081000000000E742242414180808070000000024
:100820000000007E22100808447E000000C0202046
:1008300020202010202020202020C0001010101088
:1008400010101010101010101010101000060808D2
:100850000808081008080808080806000C32C2003A
:100860000000000000000000000000000000000088
:100870000000000001020304060708096E6D690A02
:1008800000000000747261700A0000000A50726F6C
:100890006772616D20686173206578697465642092
:1008A0007769746820636F64653A000030780000EF
:1008B000232D302B20000000686C4C0065666745D6
:1008C000464700003031323334353637383941420B
:1008D000434445460000000030313233343536376A
:1008E000383961626364656600000000A43D000859
:1008F000BA3D00087C3D00087C3D00087C3D0008B6
:100900007C3D0008BA3D00087C3D00087C3D0008A5
:100910007C3D00087C3D0008123F0008F83D0008BF
:10092000E43E00087C3D00087C3D0008423F000892
:100930007C3D0008F83D00087C3D00087C3D000837
:10094000EC3E000870000020B80000206800002085
:1009500000000000000000001900000070000020EE
:10096000B800002068000020000000000101010024
:100970001A00000070000020B8000020680000206D
:1009800000000000020202001B00000070000020B6
:10099000B8000020680000200000000003030300EE
:1009A0001C00000070000020000000006800002013
:1009B00098000020040004001D00000070000020CA
:1009C00000000000680000209800002005000500DD
:1009D0002A00000070000020C000002068000020F5
:1009E00098000020060006002A0000007000002089
:1009F000C0000020680000209800002007010700C8
:100A00002A00000070000020B0000020000000005C
:100A100000000000080000002A0000007000002014
:100A2000B0000020000000000000000009010000EC
:100A30002A00000070000020B0000020000000002C
:100A4000000000000A0200003B00000070000020CF
:100A5000B000002000000000000000000B030000B8
:100A60003B000000700000200000000000000000BB
:100A7000000000000C0000003B000000700000209F
:100A80000000000000000000000000000D00000059
:100A90003B0000007000002000000000000000008B
:100AA000000000000E0000003B000000700000206D
:100AB0000000000000000000A80000200F0000005F
:100AC0003B00000078000020C000002068000020EB
:100AD000000000000002080019000000780000205B
:100AE000C000002068000020000000000103090091
:100AF0001A00000078000020000000000000000044
:100B000000000000020000001B0000007800002030
:100B10000000000000000000A8000020030000000A
:100B20001C00000078000020000000000000000011
:100B3000A8000020040000001D0000007800002034
:100B40000000000000000000A800002005000000D8
:100B50002A00000078000020C800002000000000EB
:100B600000000000060000002A00000078000020BD
:100B7000C800002000000000000000000701000085
:100B80002A00000078000020C800002000000000BB
:100B900000000000080200002A0000007800002089
:100BA000C800002000000000000000000903000051
:100BB0002A00000078000020000000000000000073
:100BC000000000000A0000003B0000007800002048
:100BD0000000000000000000000000000B0000000A
:100BE0003B00000078000020000000000000000032
:100BF000A00000200C0000003B0000007800002056
:100C00000000000000000000A00000200D00000017
:100C10003B00000078000020000000000000000001
:100C2000A00000200E0000003B0000007800002023
:100C30000000000000000000A00000200F000000E5
:100C40003B00000080000020000000006800002041
:100C50000000000000000A001900000080000020D1
:100C600000000000680000200000000001000B00F0
:100C70001A00000080000020000000006800002032
:100C80000000000002000C001B000000800000209B
:100C900000000000680000200000000003000D00BC
:100CA0001C00000080000020000000006800002000
:100CB0000000000004000E001D0000008000002065
:100CC00000000000680000200000000005000F0088
:100CD0002A0000008000002000000000000000004A
:100CE00000000000060000002A0000008000002034
:100CF00000000000000000000000000007000000ED
:100D00002A00000080000020000000000000000019
:100D100000000000080000002A0000008000002001
:100D200000000000000000000000000009000000BA
:100D30002A000000800000200000000000000000E9
:100D4000000000000A0000003B00000080000020BE
:100D50000000000000000000000000000B00000088
:100D60003B000000800000200000000000000000A8
:100D7000000000000C0000003B000000800000208C
:100D80000000000000000000000000000D00000056
:100D90003B00000080000020000000000000000078
:100DA000000000000E0000003B000000800000205A
:100DB0000000000000000000000000000F00000024
:100DC0003B00000088000020000000000000000040
:100DD0000000000000000000190000008800002052
:100DE0000000000000000000000000000100000002
:100DF0001A00000088000020000000000000000031
:100E000000000000020000001B000000880000201D
:100E100000000000000000000000000003000000CF
:100E20001C000000880000200000000000000000FE
:100E300000000000040000001D00000088000020E9
:100E4000000000000000000000000000050000009D
:100E50002A000000880000200000000000000000C0
:100E600000000000060000002A00000088000020AA
:100E7000000000000000000000000000070000006B
:100E80002A00000088000020000000000000000090
:100E900000000000080000002A0000008800002078
:100EA0000000000000000000000000000900000039
:100EB0002A00000088000020000000000000000060
:100EC000000000000A0000003B0000008800002035
:100ED0000000000000000000000000000B00000007
:100EE0003B0000008800002000000000000000001F
:100EF000000000000C0000003B0000008800002003
:100F00000000000000000000000000000D000000D4
:100F10003B000000880000200000000000000000EE
:100F2000000000000E0000003B00000088000020D0
:100F30000000000000000000000000000F000000A2
:100F40003B000000900000200000000000000000B6
:100F500000000000000000001900000090000020C8
:100F60000000000000000000000000000100000080
:100F70001A000000900000200000000000000000A7
:100F800000000000020000001B0000009000002094
:100F9000000000000000000000000000030000004E
:100FA0001C00000090000020000000000000000075
:100FB00000000000040000001D0000009000002060
:100FC000000000000000000000000000050000001C
:100FD0002A00000090000020000000000000000037
:100FE00000000000060000002A0000009000002021
:100FF00000000000000000000000000007000000EA
:101000002A00000090000020000000000000000006
:1010100000000000080000002A00000090000020EE
:1010200000000000000000000000000009000000B7
:101030002A000000900000200000000000000000D6
:10104000000000000A0000003B00000090000020AB
:101050000000000000000000000000000B00000085
:101060003B00000090000020000000000000000095
:10107000000000000C0000003B0000009000002079
:101080000000000000000000000000000D00000053
:101090003B00000090000020000000000000000065
:1010A000000000000E0000003B0000009000002047
:1010B0000000000000000000000000000F00000021
:1010C0003B0000007371727466000000EC4E000873
:1010D000A04F0008F64E0008A04F0008924F0008ED
:1010E000A04F0008F64E0008EC4E0008EC4E000839
:1010F000924F0008F64E0008D24E0008D24E00086B
:10110000D24E0008FA4E00088254000882540008AB
:101110009A5400087C5400087C54000828550008A4
:101120009A5400087C540008285500087C54000894
:101130009A5400087A5400087A5400087A54000837
:1011400028550008B062000810630008B862000863
:10115000106300080463000810630008B862000808
:10116000B0620008B062000804630008B8620008BA
:10117000986200089862000898620008BC62000843
:101180009865000898650008B06500089465000837
:1011900094650008F6650008B065000894650008CD
:1011A000F665000894650008B065000892650008BF
:1011B0009265000892650008F665000800010202C9
:1011C00003030303040404040404040405050505DF
:1011D00005050505050505050505050506060606BB
:1011E000060606060606060606060606060606069F
:1011F000060606060606060606060606070707078B
:10120000070707070707070707070707070707076E
:10121000070707070707070707070707070707075E
:10122000070707070707070707070707070707074E
:10123000070707070707070707070707080808083A
:10124000080808080808080808080808080808081E
:10125000080808080808080808080808080808080E
:1012600008080808080808080808080808080808FE
:1012700008080808080808080808080808080808EE
:1012800008080808080808080808080808080808DE
:1012900008080808080808080808080808080808CE
:1012A00008080808080808080808080808080808BE
:1012B0000808080808080808080808083745014011
:1012C00041111305058006C6EF10104EEF10802463
:1012D000EF100026F5BF011152C403AA05004EC647
:1012E00083A9450022CC4AC82A8403A985005285D7
:1012F000D28506CE26CAEF500011AA84CE854E852F
:10130000EF506010AA852685EF40102BAA84CA856D
:101310004A85EF50400FAA852685EF40F029EF203F
:10132000D07CB7070020AA8503A58712EF40105A8A
:10133000D285AA84EF50200D08C0A6854E85EF50B7
:10134000800C48C0CA852685EF50E00B08C4F240E7
:1013500022856244D2444249B249224A05618280D0
:10136000411126C2B284314622C406C62A84EF2027
:10137000202CB24044C42285224492444101828000
:10138000411106C622C426C24AC0B2872A840CC1B3
:101390004146BE8511053689BA84EF206029CA8589
:1013A000130544013146EF20A028B24004D0228525
:1013B0002244924402494101828041114AC032894B
:1013C000314606C622C426C22A84B684EF204026AF
:1013D000A685130504011306400223262401EF20ED
:1013E0002025B24022852244924402494101828054
:1013F000011126CA4EC6AA84AE8908418C4106CE88
:1014000022CC4AC83284368952C456C25AC0EF50E0
:101410008021AA8A83A54900C840EF50C0202A8AAB
:1014200083A589008844EF5000200C40AA89568586
:10143000EF40707D4C402A8B5285EF40D07CAA85CE
:101440005A85EF4070170C442A8B4E85EF40B07BD5
:10145000AA855A85EF4050162A84D6855685EF40D6
:10146000907AD285AA8A5285EF40F079AA8556856E
:10147000EF409014CE852A8A4E85EF40D078AA8519
:101480005285EF407013AA89A2852285EF40B0777C
:10149000AA854E85EF502019CC44AA892E85EF40AD
:1014A0009076AA84AA854E85EF40F0666340A00638
:1014B000CE852685EF502017EF203063AA85AA84B9
:1014C0002285EF50401693050000AA89EF40306C4A
:1014D0006347050223203901032509009305000015
:1014E000EF40F06A7D8113451500F2406244D2441A
:1014F0004249B249224A924A024B05618280A28542
:101500002685EF40700B2320A900F9B70145F1BFF4
:1015100079715AC85EC603AB0500832B060052CC16
:1015200056CA03AA4500832A460022D44AD02A84F8
:1015300003A985005E85DA8506D626D24ECE83299C
:101540008600EF40506CAA84D6855285EF40B06B80
:10155000AA852685EF405006AA84CE854A85EF40AD
:10156000906AAA852685EF403005AA85EF40D00411
:10157000DE85AA84EF403069AA855A85EF50A00A1B
:1015800008C0D6852685EF401068AA855285EF50A1
:10159000800948C0CE852685EF40F066AA854A8539
:1015A000EF50600808C4B250228522549254025968
:1015B000F249624AD24A424BB24B4561828019716C
:1015C000D6D2E6CA832A060083AC0500D2D4E2CC88
:1015D000032A460003AC4500A2DCA6DADECE2A844C
:1015E00083AB8500AE845685E68586DECAD8CED626
:1015F000DAD0EAC8032B86003A8DEEC6B68DEF40EE
:1016000090602A89D2856285EF40F05FAA854A857D
:10161000EF40807A2A89DE855A85EF40D05EAA8520
:101620004A85EF406079B709002083A589122A898D
:10163000EF40704E6344A002B707002083A5C71295
:101640004A852EC6EF40B054B24563440506930563
:1016500000004A85EF40304C635EA004B70700806D
:10166000B3CA570133CA470133CB67013146A68558
:10167000081056DA52DC5ADEEF10907B31464C18D7
:101680000808EF10F07A6E87EA8610080C102285A1
:101690003D37F65022856654D6544659B659265AD7
:1016A000965A065BF64B664CD64C464DB64D0961D4
:1016B00082802E89EE856A85EF405021AA84CA85F2
:1016C0004A85EF405054AA8503A58912EF40B075B2
:1016D0002A8DA6852685EF401053AA856A85EF409E
:1016E0009052AA8503A58912EF40F073930500007C
:1016F0002A8DEF40D049635A050083A789121CC088
:10170000930700005CC01CC469B76A85EF20F03DF8
:10171000AA8937050080A68533452501EF40B04EE4
:10172000CE85EF4050702A89AA855685EF40B04D8E
:10173000AA89E6852685EF40104DAA854E85EF40A3
:10174000A06708C0D2854A85EF40F04BAA89A685DC
:101750006285EF40504BAA854E85EF40E065CA8513
:1017600048C05A85EF40304A2A89DE852685EF40F9
:101770009049AA854A85EF40206408C419BF757155
:10178000E2D43E8C1C4126C3B70400203EC41C4555
:10179000D2DCD6DA3EC89C45DED6EECE832B4500A1
:1017A00083AD050083AA450003AA041322C54AC1DC
:1017B000CEDEE6D2EAD006C7DAD8AA8C2E8D36CA9B
:1017C0003A8442893EC6B28902C29247524763D7E1
:1017D000E70EA2473146E68523A0FC00C24723A2BC
:1017E0007C012320BD0123A4FC00B24723225D011C
:1017F00008182324FD00EF10B0633146EA85081075
:10180000EF101063940010100C184E85D5364DC1A2
:10181000064BD2855A85EF409037635B0508EE850D
:101820005A85EF40503EA245EF4000592A8AD6859E
:101830005A85EF40503DDE85EF400058B2452ACC36
:101840005A85EF40503CC245EF4000576247232085
:10185000440108C458C083A549002ACC3A85EF400A
:10186000905CE24783A589002ACE3E85EF40B05BBD
:1018700083A509002ACC5285EF40F05A7247E2470F
:101880003146AAC2CC000810BAC4BEC6EF10505AE6
:101890000C100818893431460C186285EF10505925
:1018A00013064002938509014A85EF1070585A8A41
:1018B00092479389490385073EC201BFB70900805B
:1018C00013CBF9FF33755B01EF508040B707002061
:1018D00003A6870D83A6C70DEF30C06D6356A01613
:1018E000B707002083A547135E85EF40E04CD685FF
:1018F00033C5A900EF40807D93050000AA89EF4021
:1019000090216353A014EE854E85EF40D02FA24561
:10191000EF40804AB707002083A587132A8D3375CF
:10192000AB00EF40D02663510512B2454E85EF4023
:10193000902DC245EF404048B707002083A5C7134C
:101940002A8BEF40D02463510510B707002083A5F0
:1019500007145A85EF40301C6358A00ECE8552857F
:10196000EF40701B6352A00ED6852320A4014E8544
:10197000EF407029DE85EF402044B707002083A7A1
:1019800087121307000048C0232464012320EC00C1
:101990002324EC002322FC000840B70A0020EF506B
:1019A000203303A60A0E83A64A0EEF306075B707F0
:1019B000002003A6870E83A6C70EEF20702CEF40F1
:1019C000C018AA840844EF50A03003A60A0E83A6CC
:1019D0004A0EEF30E072EF404017B707002083A7B0
:1019E0004714AA948588232AF900A1C4232CF9005E
:1019F000232EF900CE855285EF4070196343050010
:101A00004E8AB707002083A507155285EF4030188E
:101A1000BA402A449A440A49F659665AD65A465B4D
:101A2000B65B265C965C065DF64D132505004961A4
:101A30008280B707002083A78714232CF900B707FB
:101A4000002083A7C7146DB783A9041365B7797104
:101A50005AC82A8B2E8522D426D24AD04ECE52CCBA
:101A600056CA66C206D65EC662C4EF401072B70799
:101A7000002003AA070F83AA470FB707002003A976
:101A8000870F83A9C70FAA845A84894C63D89C0402
:101A9000A2852285EF4030172A84EF5060235286BA
:101AA000D68685842A8CAE8BEF30205B634A050096
:101AB0004A86CE866285DE85EF30C04FE358A0FCB3
:101AC000B2502285225492540259F249624AD24AB3
:101AD000424BB24B224C924C45618280E39294FF80
:101AE0002285DA85EF4030122A84D9BF2571232C54
:101AF00081183E845C42232A9118232821193EC86C
:101B0000B707002083A48712930700002320F11257
:101B10002322F1122324F1122326F1122328F11299
:101B2000232AF112232CF112232E11182326311906
:101B3000232441192322511923206119232E7117BF
:101B4000232C8117232A91172328A1172326B117A5
:101B500036C03AC242C6232C9110232E91108947D9
:101B60002A8963D7170D4245EF508016B70700202A
:101B700003A6071083A64710EF209010B707002098
:101B800003A6070E83A6470EEF308057EF50A01D27
:101B9000930500002A84EF401007B707002083A5B3
:101BA0008714AA842285EF401006A685EF40C02046
:101BB000B707002083A547152320A9002285EF4001
:101BC0009004A685EF40401FB707002083A5871526
:101BD0002322A9002285EF401003B707002083A528
:101BE000C715AA842285EF401002AA852685EF40FA
:101BF000A01C2324A9008320C11903248119832454
:101C000041198329C118032A8118832A4118032BFB
:101C10000118832BC117032C8117832C4117032D27
:101C20000117832DC1164A85032901191D61828080
:101C3000B28908183146468AEF10901F3146CE858A
:101C40000810EF10F01E9246024613088111BC08DE
:101C5000F8000C1008182536E30705F03146CE854C
:101C60000818EF10F01C3146AC080810EF10501C9B
:101C700010100C18E809EFF0BF893146EC0908187C
:101C8000EF10101B0C18C810EFF0EFE43146CE85B2
:101C90000818EF10F0193146AC080810EF10501971
:101CA00083268111268710100C18A811EFF03F91A0
:101CB0003146AC110818EF10B0170C188818EFF067
:101CC0008FE1E64B9655764B5E85EF40C073A65587
:101CD000AA845A85EF402073AA852685EF40C00D5F
:101CE000865AB655AA845685EF40E071AA852685A6
:101CF000EF40800C93050000EF406069B7040020BE
:101D000083A50416635405385A85EF40C06FAA8531
:101D10004645EF40501183A50416AA8C5685EF4026
:101D2000806EAA855645EF40101083A504162A8CB4
:101D30005E85EF40406DAA853645EF40D00E3647B0
:101D400083A50416AADE5E853ACA66C162C3EF4067
:101D5000806B83A504162AC45A85EF40C06A83A508
:101D60000416AA8C5685EF40006AC6552A8C5E85FB
:101D7000EF406069D655AA8B5A85EF40C068AA85A6
:101D80005E85EF406003E6552A8B5685EF40A067DD
:101D9000AA855A85EF40400293050000EF40205F7E
:101DA000A247C64D564D5247BE85635B05303A8506
:101DB000EF4070072AC5E6856E85EF40D0062AC73A
:101DC000E2856A85EF4030062AC93146EC180818CA
:101DD000EF1010063146CC100810EF107005324895
:101DE00012478246050AD288A28710100C184809AB
:101DF000F53931462C010818EF10900331468C1844
:101E00000810EF10F002324812478246D288A287AB
:101E100010100C180811D93983AA0416130B0000EE
:101E2000814CDA8BB24763DEFC34C6454840EF4054
:101E3000807FD6452A8A0844EF40E07EB645AA84D2
:101E40000840EF40407E3146AADBCC190818D2DDAD
:101E5000A6DFEF10E07D0C186811EFF0CFC7B64594
:101E60000840EF40407CAA84C6454840EF40A07B34
:101E70002A8CD6450844EF40007B2A8AA685268511
:101E8000EF406058AA84E2856285EF40C057AA857A
:101E90002685EF307072AA84D2855285EF40A05615
:101EA000AA852685EF305071EF2020443A5D664ABE
:101EB000DA57CA5DF6442ACAD2856A853EC4EF4025
:101EC00080542ACCA6856E85EF40E053E247AA8570
:101ED000065C3E85EF30506E2ACC2245E285EF400D
:101EE0008052E247AA853E85EF30106D93050000D1
:101EF000EF40E0496354051EB707002083A507168D
:101F00005285EF404050AA853645EF40C071B70773
:101F1000002083A507162A8A2685EF40C04EAA8591
:101F20004645EF404070B707002083A50716AA84F6
:101F30006285EF40404DAA855645EF40C06EAAC16C
:101F400031462C192A8C081852DD26DFEF10406E1E
:101F500031466C110810EF10A06D9246024613082E
:101F6000C1139C09D8010C100818EFF05F816315AC
:101F7000051AE6456A854444EF40E048F6452A8A5A
:101F80006E85EF404048AA855285EF30F0622A8A7C
:101F900086552245EF402047AA855285EF30D06113
:101FA000930500002A8AEF40803E6349051CD285D4
:101FB0002685EF404045AA855E85EF30F05FA24759
:101FC000370A0080334DAA01B347FA00B34DBA0176
:101FD00031460C02AA8B08182324F1102320A111EA
:101FE0002322B111EF10C0643146AC080810EF1085
:101FF000206410100C186802EFF08FD10325C11077
:1020000083A5090033454501EF40E03F2A8C0325B5
:102010000111C24533454501EF40E03EAA85628586
:10202000EF3090592A8C0325411183A5890033454F
:102030004501EF40403DAA856285EF30F05793059A
:1020400000002A8AEF40A03463540500130A000000
:10205000930500005285032C8113EF40C02B635C75
:10206000A010930500006285EF40E02A6355A010A0
:10207000E2855285EFF0BF9DAA852685EF40A03806
:10208000AA855A85EF3050532A8BF5A05A85EF4028
:102090008037C645EF30505283A50416AA8C56856A
:1020A000EF406036D645EF30305183A504162A8CB8
:1020B0005E85EF404035AA853645EF30F04F41B19F
:1020C0003A85EF30704F2AC5E6856E85EF30D04EE9
:1020D0002AC7E2856A85EF30304EFDB1D68552853C
:1020E000EF406032B645EF30304DB707002083A592
:1020F00007162A8A2685EF400031C645EF30D04BBF
:10210000B707002083A50716AA846285EF40A02F99
:10211000D645EF30704A25B51E45D285EF40A05018
:102120002ACE2E45A685EF4000502ACC3E45E285BA
:10213000EF40604F72472A8ABA853A85EF40A02C5B
:10214000E247AA84BE853E85EF40E02BAA8526851E
:10215000EF309046AA84D2855285EF40C02AAA85E6
:102160002685EF307045EF204018AA855245EF4094
:10217000801AE350A0E0850C41046DB1130A000001
:102180003DB58325C1115E85EF40E027832501120F
:10219000AA845A85EF402027832501132A842685A7
:1021A000EF406026A285EF303041032B4112EA4513
:1021B000AA895A85EF402025AA854E85EF30D03F69
:1021C000832A81129A55AA895685EF40C023AA8591
:1021D0004E85EF30703E832541132A8A2685EF40D5
:1021E0008022A285EF30503DFA45AA895A85EF40FA
:1021F0008021AA854E85EF30303CAA55AA895685A4
:10220000EF406020AA854E85EF30103B8325C11238
:10221000AA892685EF40201FA285EF30F039DA45E4
:102220002A845A85EF40201EAA852285EF30D038B7
:102230008A552A845685EF40001DAA852285EF30F5
:10224000B0372320A90023224901232439016FF04C
:102250009F9A797156CAB70A00205AC803AB8A12EE
:102260004ECE3685AE89DA8522D426D24AD052CCDB
:1022700006D65EC662C4328A3689BA843E84EF408E
:102280008009634CA014930500004A85EF4020109C
:102290006347051403AB8A122685DA85EF40A00751
:1022A0006342A014930500002685EF40400E634D65
:1022B000051283AA8A122285D685EF40C00563489D
:1022C000A012930500002285EF40600C63430512C5
:1022D000370B002083258B164A85B70B0020EF4073
:1022E0008012EF40807083258B161379F50F2685B9
:1022F000EF406011EF40606F83258B16937AF50FE6
:102300002285EF404010EF40406E13F739009316DE
:102310002700370700081307C726369793773A0038
:10232000BA9783C70700137BF50F3D89B3B4A700A5
:1023300013FCFA001375F90033BC8701B3B7A7008B
:10234000135549403E95EF40C06F03A94B162A84B0
:10235000CA85EF40C003634305004A842285EF40ED
:10236000C0681374F50F13D54A406295EF40606D55
:1023700083AA4B162A89D685EF4060016343050086
:1023800056894A85EF4060661379F50F13554B4027
:102390002695EF40006B83AA4B16AA84D685EF30B2
:1023A000107F63430500D6842685EF4000641A0938
:1023B0002E04336424011376F50F418E2254B2505B
:1023C00092540259D24A424BB24B224CD2854E858E
:1023D000624AF24945616F00405E5A8965BD130942
:1023E00000004DBDDA84F1B593040000D9B55684E0
:1023F000C5B513040000E9BD3571B70700204EC70D
:10240000E2DC83A9070E03AC470EB707002052C5D4
:1024100056C303AA871083AAC710B70700205AC162
:10242000DEDE03AB071183AB4711B7070020E6DA06
:1024300083ACC71622CD4AC9EAD8EED606CF26CB42
:102440002AC02EC232C436C63A8901444E8DE28D6E
:1024500081449307000026853EDEBEC0BEC2EF3039
:1024600000754E86E286EF20A0015286D686EF30B8
:10247000A00DEF40500FAAC42285EF3040736A864A
:10248000EE86EF10F07FAE862A86DE855A85EF3025
:10249000A00BEF40500D3146AAC6AC000810E6C8AC
:1024A000EF1000190C10C808EFE0FFE231466C187D
:1024B0000810EF10E0173146CC080808EF1040175D
:1024C000B2472247924681484A8810080C100818E3
:1024D000EFF0CFE1E2575257C2560245A685228659
:1024E0008D3B85049307000AE395F4F605049307F2
:1024F0000005E31FF4F4FA406A44DA444A49BA4951
:102500002A4A9A4A0A4BF65B665CD65C465DB65D23
:102510000D618280411106C6712A0145F52EB24037
:1025200023AA019685451305D00241016F00B044EE
:102530005D7186C6A2C4A6C2EF00B0332E84AE86FB
:10254000B7050008AA842A86938505240A85EF101A
:10255000601B0A869306F07F81450145352BB70540
:102560000008A6862286938585250A85EF108019A6
:102570000A869306F07FC1450145392B8545130531
:10258000D002EF0090451305803EEF00103E8145DC
:102590001305D002EF0070441305803EEF00F03CBD
:1025A000B6402644964461618280411122C42A8447
:1025B000371501409145130505C006C6EF00606957
:1025C000894537350140EF0030077DD9A285373581
:1025D0000140EF00F004854537350140EF00D0059C
:1025E0007DD937350140EF00F0032244B240371562
:1025F00001409145130505C041016F00406541113F
:1026000022C42A8437150140130505C0854506C636
:10261000EF00E06322852244B240410179B74111C5
:1026200022C42A84371501408545130505C006C616
:10263000EF00E061135584001375F50FBD37137576
:10264000F40F2244B24041018DB7411122C42A84C3
:1026500037150140130505C0854506C6EF00605FCC
:1026600022852244B240410189B701114EC6AA8990
:102670001305A00206CE22CC26CA4AC8AE843289EF
:102680003684E13713851900593F13051900413F7E
:102690001305B0025D3F1385A40151371305A40152
:1026A000BD3F6244F240D2444249B2491305C002E0
:1026B000056161BF79711305206006D622D4612BB4
:1026C00013053060492B1305006071231305C060AA
:1026D000592337140140130504809306000E0D465C
:1026E000E145E12191460D46130504C0C145752918
:1026F0009145130504C0A12B4800EF00C06C93075F
:1027000040103EC28D473ECC930700203EC84C008F
:10271000C147373501403ECE02C402C602CAEF00AF
:10272000206C9D4537350140EF0040703735014042
:10273000EF00606E8D460946130504C0C145B52102
:10274000130504C08D4531238945130504C01123A9
:102750001305800C4D2E8945130504C0CD29514524
:102760005D264545DD3513054006712E1305100223
:10277000E93D1305100BD13D154551351305A00357
:10278000BD3D1305A003A53D1305200B7D3D15455B
:10279000BD351305A003A5351305A0038D3513051D
:1027A000300B65351545A13D1305A003893D130583
:1027B000A003B1351545A1351305A00389351305CF
:1027C000A003353D1305400B49350D450D3D13055F
:1027D000000CA53D130520061D3509450D35114595
:1027E000393D1305100C95351305000C093D1305F3
:1027F000200CA13D35452135014511351305300C1F
:10280000A9351305D008E53B1305A006CD3B1305FC
:10281000400C253D1305D008DD331305E00EC5330C
:102820001305500C1D353945D93B1305000E313DBC
:102830004145F1333945E1330945D1330D45C133C4
:102840003945753B1D45653B0945553B1D45453B98
:10285000294575334945653313057002EFF03FDABA
:1028600013057003EFF0BFD90145EFF05FD935458F
:10287000EFF0FFD83945EFF09FD84145EFF03FD852
:102880001305100ED9334145EFF07FD73945EFF0EE
:102890001FD70D45EFF0BFD60D45EFF05FD63D4594
:1028A000EFF0FFD51945EFF09FD50945EFF03FD583
:1028B0002145EFF0DFD42945EFF07FD44D45EFF00F
:1028C0001FD413056002EFF09FD313056003EFF0F0
:1028D0001FD30145EFF0BFD23545EFF05FD2394548
:1028E000EFF0FFD14145EFF09FD11305A003EFF0CA
:1028F000DFD51545EFF0BFD013056003EFF0FFD42F
:1029000013058007EFF0BFCF13059002EFF0FFD360
:10291000B25022544561828041114AC09306F004AE
:102920002A891306F0098145014526C206C622C43C
:102930009304000AEFF07FD3130400054A857D1449
:10294000EFF0FFCD65FCFD14E5F8B240224492445F
:10295000024941018280411122C4AE8632842A8616
:1029600006C6EFF09FD022852244B24041016FF0AD
:102970001FCB011122CC26CA4AC84EC652C406CE6D
:1029800056C22A892E84B289B6843A8AEFF0FFCDE6
:1029900063F38402F2406244D2444249B249224A7B
:1029A000924A056182805285EFF07FC7850AE3FC79
:1029B00059FF0504F1BFCA8ADDBF3287938615002F
:1029C00013061500FD157D156FF0BFFA930700097A
:1029D00063E3A70C797126D206D622D44AD04ECE14
:1029E00052CC56CA5AC85EC693070004AE8463EF41
:1029F000B70432840114B68A130675009386F50075
:102A00001374F40F37090008AA893A8A1204EFF008
:102A1000DFC51309C92763960A048149414BB3876F
:102A20008900CA9783CA0700A14493F71A00528508
:102A300099E303A54197FD1493F4F40FEFF03FBE23
:102A400093DA1A00FDF08509E39B69FDB250225428
:102A500092540259F249624AD24A424BB24B456102
:102A600082804A94138B0401A14B834A04000149DC
:102A700093F71A0099C75286A68533852901EFF08E
:102A80009FED050993DA1A00E31479FF8504050424
:102A9000E39D64FD65BF8280011152C4416A22CC6E
:102AA00026CA4AC84EC656C25AC006CE2A84AE842A
:102AB0003289B689930A0009130B0004130A0A80AD
:102AC0008347090099EBF2406244D2444249B2493B
:102AD000224A924A024B0561828063F48A00C10453
:102AE000014463779B005285EFF01FE3814401446A
:102AF0000346090022854E878146A685EFF01FED2B
:102B00002104050975BF79714AD04ECE5AC806D640
:102B100022D426D252CC56CA5EC662C466C22A8B62
:102B20003D29AA892E892529AA842E846394A90087
:102B3000E30BB9FEB707002003A9871183A9C711CA
:102B4000B70B00202929AA87058DB3B7A700818D6F
:102B50009D8DEF306011AA8A03A50B062E8AEF30F7
:102B6000A00B4A86CE86EF10B070AA8C5A852E8CA8
:102B7000EF30800A2A86AE866685E285EF204058CF
:102B80002A86AE865685D285EF20204DE34C05FA85
:102B9000B250225492540259F249624AD24A424BEC
:102BA000B24B224C924C4561828093F7050193F819
:102BB000F50099C3B3E8C8008147054EBD4E130F19
:102BC0008002930F800421433316FE00758E1DC2D0
:102BD00013972700832205003398EE001348F8FF6F
:102BE000337858003397E800336707016399E505A8
:102BF00050C918C18507E39967FC054EBD4E130FF8
:102C00008002930F800441433316FE00758E05C683
:102C1000139727000117832245003398EE001348CD
:102C2000F8FF337858003397E80033670701639C57
:102C3000E50150C958C18507E39867FC8280E39A93
:102C4000F5FB10C97DB7E397F5FF10C9E5B70CC9CF
:102C500082804CC9828013576500B71702403E97A7
:102C6000144385473395A700558D08C38280B71755
:102C70000240135765003E9714438547B397A7005A
:102C800093C7F7FFF58F1CC382806FF0DFFC6FF0F6
:102C90001FFE7971B715000822D441462A84938516
:102CA000C586080806D6EF00B018B7070304938757
:102CB000172002C03EC202C43EC6371702405C4322
:102CC000894689838D8B6391D70E5C439396F70079
:102CD00063D606065C579396F70063DC06045C57E0
:102CE000585791832183BD8B3D8B9386170009072D
:102CF000C5476313F7005147B7177A00938707203A
:102D0000B3D7D702B387E7023717024058573D8B36
:102D1000050733D7E702B7160240DC42D442C98325
:102D200013962600BD8B6350060293E707018507C3
:102D30000DA0B7177A0093870720F9B7B7173D00A2
:102D400013870790C9BFBD46E383D7FE8907638712
:102D5000D704B387E702B7160240D8421010118398
:102D60003D8B3297034707FF33D5E700D8422183D5
:102D70001D8B3297034607FED84214102D831D8BFE
:102D80003697834687FE0947630CE4026363870234
:102D900011E03E85B2502254456182809947B307C5
:102DA000F7020583BA9745BFB7177A0093870720C4
:102DB0005DB78D473355D500E30EF4FC0145D9BF0F
:102DC0003355C500C1BF232005002322050023245D
:102DD000050023260500232A0500232C05008280F8
:102DE0001C410D6713070704D4417D8F9C41D58F8B
:102DF0009445D58FD445D58F9449D58FD449D58F57
:102E0000944DD58FD98F1CC15C4D7D771307F77F0B
:102E1000F98F5CCD82801C4193E707041CC182803E
:102E20004CC5828048454205418182801C4109672A
:102E3000D98F1CC10CC9828008456D8D3335A00027
:102E40008280B71702409843B706FFE0B1061367C8
:102E5000170098C3D843758FD8C39843B706F7FEB9
:102E6000FD16758F98C39843B706FCFFFD16758F46
:102E700098C3D843B70601DFFD16758FD8C323A6C4
:102E800007029843B706F7EAFD16758F98C3370710
:102E9000FF0098C794434167D98E94C39307F7FF07
:102EA0003717024014431396E60063440600FD17EB
:102EB000F5FBB717024098439316E70063C306007B
:102EC00001A0D843B706C4DFFD16D8C3D843D8C382
:102ED000D84313670740D8C3D843758FD8C3D843A6
:102EE000B7062920558FD8C3D857BD76758FD8D748
:102EF000D857C166938616F1558FD8D79843B70631
:102F00000004558F98C3B7170240984393164700A3
:102F1000E3DD06FE9843B7060010558F98C3B71738
:102F20000240984393162700E3DD06FE9843B70658
:102F30000001558F98C3B717024098439316670056
:102F4000E3DD06FED843719BD8C3D843136727003F
:102F5000D8C3371702405C43A18BF5DF8280B707E7
:102F600000D1D8438843CC43E39DE5FE8280B70778
:102F700000D223800700A38507009317450037156B
:102F800000D23E95B71700D263E3A700828023A04A
:102F90000700C107D5BFF327503093F707FC93E72D
:102FA00037007390573082804111B747014022C4E7
:102FB00006C626C2938707802A84631EF50613057A
:102FC0002060EFF05FC91305E060EFF0DFC8B714D1
:102FD0000140930600200D46E14513850480EFF083
:102FE000DFBC930600400D46914513850480EFF049
:102FF000DFBB2285192CF165228593850520592C8C
:1030000022858145112622858145012E2285814513
:10301000E52422858145352E228581458926228514
:103020009145392E2285A145392622852244B24078
:1030300092444101E5ACB7470040938707406315D0
:10304000F50213052060EFF01FC113051071EFF0BA
:103050009FC0B714014091460D46E1451385048099
:10306000EFF0BFB4A14641B7B240224492444101BF
:103070008280411106C622C426C24AC0EFF03FEE4C
:10308000B70700202A8903A50706AE84EF30102772
:10309000B7070020AA8503A5071DEF3020032A8467
:1030A000A6854A85EF307035AA852285EF30A03598
:1030B000EF30702EB2402244924402494101828096
:1030C00079714AD04ECE5AC806D622D426D252CCD6
:1030D00056CA5EC662C466C22A8BEFF05FE8AA8950
:1030E0002E89EFF0DFE7AA842E846394A900E30A17
:1030F000B9FEB707002003A9071283A94712B70B2F
:103100000020EFF0DFE5AA87058DB3B7A700818D1A
:103110009D8DEF207035AA8A03A50B062E8AEF201D
:10312000B02F4A86CE86EF10B014AA8C5A852E8C0A
:10313000EF20902E2A86AE866685E285EF10507CC1
:103140002A86AE865685D285EF103071E34B05FA9C
:10315000B250225492540259F249624AD24A424B26
:10316000B24B224C924C456182809307803E3305DE
:10317000F5026FF0FFF49307F00463EFA70495479F
:1031800063ECB704B7770008938787F1BE95E147F2
:103190003305F502011122CC3714000813044494BE
:1031A00026CA83C5050006CE2EC62A940440C84010
:1031B000EFF07FAA83460401B245884005443314EA
:1031C000D400A2860D46EFF05F9E9C40F240D244B0
:1031D000C0CB62440561828082809307F00463E57E
:1031E000A70261473307E502B71700081385479424
:1031F0003A951C418346050198438547B397D7000C
:1032000099C11CCB82805CCB82804111B7570040B2
:1032100006C6138707C06301E506636FA70037473B
:10322000004013070740630BE50293870780630E96
:10323000F502B240410182806307F504B7470140BF
:1032400093870780E317F5FE1305E030EFF0FFA347
:103250001305E030B24041016FF07FA31305104128
:10326000EFF0BFA213051041F5B713052041EFF0B1
:10327000DFA113052041F9BF13053041EFF0FFA096
:1032800013053041C1BF13054041EFF01FA01305E6
:103290004041C9B74111B757004022C426C206C6F3
:1032A000138707C02A84AE84630DE500636DA70011
:1032B000B7C7FFBF938707C0AA9793F7F7BF01452A
:1032C00099EF094519A8E30EF5FEB747014093872A
:1032D000078001456315F4000D45EFF09F9B93D7E0
:1032E00014003E9533559502B24092444205418107
:1032F00008C422444101828058451377F79F58C57E
:103300005C45CD8F5CC582805845FD76FD16758F76
:1033100058C55C45CD8F5CC582801849F576FD1691
:10332000758F18C91C49CD8F1CC982805C450967FF
:10333000D98F5CC582805C45DD9BCD8F5CC582806A
:103340005C45ED9BCD8F5CC5828093F5F51F4CC12C
:1033500082805C4993F7F7EFCD8F5CC982805C492E
:1033600093F7F7DFCD8F5CC9828093D7650093F721
:10337000F73FAA9788433355B5000589828000003E
:103380005D7106C012C216C41AC61EC82ACA2ECC47
:1033900032CE36D03AD23ED442D646D872DA76DC35
:1033A0007ADEFEC0F322103496C0F322003096C2BB
:1033B000F322407C96C4732520348A85E12086421E
:1033C00073901234964273900230A6427390427CFE
:1033D00082401242A2423243C2435245E245724603
:1033E00082561257A2573258C258525EE25E725F3E
:1033F000864F616173002030000000005D7106C0DF
:1034000012C216C41AC61EC82ACA2ECC32CE36D054
:103410003AD23ED442D646D872DA76DC7ADEFEC0A4
:1034200073D0E87E7350F97E73D0B97EF390D07E6E
:1034300073700430B6427390427CA642739012348B
:1034400096427390223482401242A2423243C243D7
:103450005245E245724682561257A2573258C25818
:10346000525EE25E725F864F616173002030B71575
:103470000008411115469385C587054506C6F12408
:10348000054525204111856722C406C6FD172A84FB
:103490006314F500EFF0BFFDB715000815469385DE
:1034A000458805455D24228509207971B7150008F6
:1034B00022D47D462A849385C5880A8506D68D2A1E
:1034C00079468A8509455124A28509450928B715F9
:1034D00000080546938585880945852C01A07971EA
:1034E0004AD02E89B715000809469385C58A22D48B
:1034F00026D24ECE52CC56CA06D6AA847144B124E6
:103500003D4AA54AF159B3178A00B3F72701B3D74B
:10351000870093F7F70F63E9FA0293870703E2073F
:10352000E18705469305F10026857114A307F10094
:10353000292CE31A34FDB250225492540259F24914
:10354000624AD24A4561828093877703C9BFAA85C0
:1035500081460146014515AC4111B747000822C418
:1035600006C69387A7802A8499C38145792CB777AB
:10357000000803A507F21C5591C382972285EFF03E
:10358000DFF24111B777000822C4377400081387AF
:1035900047F2130444F2198C26C206C609849384A8
:1035A00047F219E42244B240924441016F00F049CD
:1035B0007D1493172400A6979C438297DDB7411191
:1035C000B777000822C437740008138747F2130442
:1035D00044F2198C26C24AC006C609848144138964
:1035E00047F263998402EF009044B777000837747C
:1035F0000008138747F2130444F2198C09848144AC
:10360000138947F2639F8400B240224492440249E6
:103610004101828093972400CA979C438504829736
:10362000C9B793972400CA979C4385048297D9BF52
:10363000B3C7A5008D8BB306C50081E78D4763EE48
:10364000C700AA876378D50A03C7050085078505E3
:10365000A38FE7FEE3EAD7FE828013773500AA87BF
:1036600011CB03C7050085078505A38FE7FE13F778
:103670003700FDB713F7C6FF130607FE63FBC70449
:1036800083A3050083A2450083AF850003AFC50077
:1036900083AE050103AE450103A3850183A8C501DF
:1036A00023A0770023A2570003A8050223A4F70153
:1036B00023A6E70123A8D70123AAC70123AC6700EB
:1036C00023AE1701938545029387470223AE07FF78
:1036D00075B72E883E866360E6021388D7FF0146E1
:1036E000636607010D071D8F1376C7FFB297B2956A
:1036F000E3ECD7F482808328080011061108232EFA
:1037000016FFD1BF35713ECBB707008093C7F7FFD7
:103710003ECE3EC8C177938787203ECAB7070020B8
:103720002AC42ACC03A5470632C536C72E863401E3
:103730002C0086DE3AC942CD46CF36C2B52CA24710
:1037400023800700F6500D618280B7070020B28603
:103750002E86AA8503A5470609A0411122C426C2C8
:103760002A842E85B285368606C623A801A0EF00DE
:103770009033FD576316F50083A701A191C31CC0C8
:10378000B240224492444101828083A78197AA8853
:103790009DE31385419823ACA196370800001303DD
:1037A00008009387419863080300832708002324B7
:1037B000F50893874198D8437D487D556346E804D2
:1037C000638D080203A88708630008041315270007
:1037D000429510C10323081005463316E6003363F3
:1037E000C300232068102320D50889466397D8009A
:1037F00083264810558E2322C810930617000A0707
:10380000D4C3BA978CC701458280797152CC56CA0D
:103810005AC862C406D622D426D24AD04ECE5EC63C
:1038200066C2AA8A2E8A054C03A48197938B81973E
:1038300011C84440832984081389F4FF8A04A294A0
:10384000635F0900B250225492540259F249624A0D
:10385000D24A424BB24B224C924C45618280630E5D
:103860000A00639509007D19F114D9BF9317290047
:10387000CE9783A70708E39847FF5840DC407D17A1
:103880006318270323222401F9DF832C4400638873
:10389000090083A6091033172C01F98E89EE82974F
:1038A000584083A70B00E31197F9E30EF4FAADBF7C
:1038B00023A20400D1BF93162900CE968C4283A682
:1038C0004910758F01E756858297D9BF2E8582975B
:1038D000C1BF01114AC803A9850022CC4EC652C4FB
:1038E00006CE26CA56C25AC02E84328AB68963EDE5
:1038F000260983D7C50013F7074849C704408C49F8
:1039000058482A8BB38AB4408D44B384E4020947F3
:10391000B3C4E40213871600569763F3E400BA8435
:1039200093F70740C1C3A6855A8571272A890DE5FB
:10393000B1472320FB008357C4007D5593E707045C
:103940002316F400F2406244D2444249B249224A6A
:10395000924A024B056182800C485686EFF05FCD9B
:103960008357C40093F7F7B793E707082316F400CB
:103970002328240144C85699B384544123202401A8
:1039800004C44E8963F329014E8908404A86D285D2
:10399000252D1C4410400145B38727414A961CC47D
:1039A00010C04DB726865A85EF00007E2A8969F13E
:1039B0000C485A85B92DADBF83D7C500717122D58A
:1039C00026D34AD152CD06D74ECF56CB5AC95EC761
:1039D00062C566C36AC1EEDE93F707082A8A2E899C
:1039E000B2843684B1C39C49A1E393050004E12568
:1039F0002320A9002328A90005E5B1472320FA00C8
:103A00007D55BA502A549A540A59FA496A4ADA4AF0
:103A10004A4BBA4B2A4C9A4C0A4DF65D4D61828056
:103A200093070004232AF90093070002A304F1027C
:103A3000B70A00009307000302D22305F10222C651
:103A4000930C5002371B0008B71B0008371D0008F5
:103A5000374C0008938A0A0026848347040099C3E0
:103A6000639F9709B30D9440630E9400EE862686FB
:103A7000CA855285EFF0FFE5FD57630BF5189257A5
:103A8000EE973ED28347040063840718FD579304E2
:103A9000140002C802CE3ECA02CCA309010482D49B
:103AA000854D83C50400154613050B8B0923C247BA
:103AB0001384140039E513F7070109C7130700023F
:103AC000A309E10413F7870009C71307B002A3098C
:103AD000E10483C604001307A002638DE602F247E7
:103AE0002684814625462945034704009305140092
:103AF000130707FD6375E60695C63ECE25A00504AF
:103B0000A9BF13070B8B198D3395AD00C98F3EC824
:103B1000A28441BF324793064700184336C6634923
:103B200007023ACE034704009307E0026310F7064A
:103B3000034714009307A002631BF702B24709046E
:103B4000138747009C433AC663C107023ECA3DA89B
:103B50003307E04093E727003ACE3EC8E1B7B3878A
:103B6000A7022E848546BA9741B7FD57C5B705040D
:103B700002CA81468147254629450347040093052B
:103B80001400130707FD637DE604E9F28345040092
:103B90000D4613858B8B212901CD93878B8B1D8D32
:103BA00093070004B397A700424505045D8D2AC81A
:103BB0008345040019461305CD8B93041400230498
:103BC000B102F52639CD63970A024247B24713770F
:103BD000071009CF91073EC69257CE973ED2ADBD92
:103BE000B387A7022E848546BA9741BF9D07E19B04
:103BF000A107D5B7780093062C8D4A860C0852850C
:103C000097000000E7000000FD57AA89E316F5FCC5
:103C10008357C9007D5593F70704E39407DE1255D7
:103C2000CDB3780093062C8D4A860C085285012A64
:103C3000E1BF797152CC9C493A8A984522D426D268
:103C40004ECE56CA06D64AD05AC85EC6AA892E8417
:103C5000B284B68A63D3E700BA879CC003473404B2
:103C600019C385079CC01C4093F7070281C79C407D
:103C700089079CC00329040013796900631A0900AD
:103C8000130B9401FD5B5C449840998F634CF904DD
:103C900083473404B336F0001C4093F70702A5EBCA
:103CA00013063404D6854E85029AFD576303F50446
:103CB0001C4011469840998B544481446397C70037
:103CC000B384E64063D3040081441C441848635421
:103CD000F700998FBE94014969047D5B63982405C0
:103CE000014509A885465A86D6854E85029A631EE7
:103CF00075017D55B250225492540259F249624ADC
:103D0000D24A424BB24B456182800509ADBF3307B1
:103D1000D40013060003A301C70403475404938788
:103D20001600A2978906A381E7049DBF85462286D7
:103D3000D6854E85029AE30E65FB050945B7797174
:103D400022D426D24AD04ECE06D652CC56CA5AC813
:103D500003C8850193078007AA842E843289B68917
:103D600063EE0701930720069386350463ED070190
:103D70006305081C93078005630AF812930A24045C
:103D8000230104050DA89307D8F993F7F70F5546BB
:103D9000E366F6FE371600088A071306C68EB2974A
:103DA0009C4382871C43938A2504938647009C4347
:103DB00014C32381F504854765A29C41084313F68B
:103DC0000708930545000DC21C410CC3B715000838
:103DD00063D807001307D002B307F040A301E4043F
:103DE0009385458C2947A1A013F607041C410CC3F9
:103DF00071DEC207C187D9BF90411C431375060805
:103E00009385470001C50CC39C4339A01376060473
:103E10000CC37DDA83D70700B71500081307F00637
:103E20009385458C6305E80E2947A301040450409F
:103E300010C46345060008406D9908C099E3B68A2E
:103E400019CEB68A33F6E702FD1A2E96034606000F
:103E50002380CA003E86B3D7E702E375E6FEA1479A
:103E6000631EF7001C40858B91CB58401C4863C7EC
:103E7000E70093070003A38FFAFEFD1AB3865641AD
:103E800014C84E87CA867000A2852685EFF07FDAB7
:103E90007D5A631B450D7D55B250225492540259F0
:103EA000F249624AD24A424B45618280A3820505AB
:103EB000B71500089385458C104008431378060811
:103EC0001C411105630D080208C31377160001C7D2
:103ED0001366060210C04147A9FB10401376F6FD99
:103EE00010C0A1B79C4193E707029CC193078007CC
:103EF000B7150008A302F4049385858D75BF137868
:103F0000060408C3E30308FCC207C1837DBF214741
:103F100029BF90411C43CC491378060813854700FC
:103F20006306080008C39C438CC301A808C313762A
:103F300006049C4375DA2390B70023280400B68A50
:103F400089B71C43D04181459386470014C383AA97
:103F500007005685A92801C53305554148C05C4076
:103F60001CC8A301040431BF14485686CA8526859F
:103F70008299E30245F31C40898B8DE7B2474844A0
:103F8000E35CF5F03E8509BF85465686CA852685E1
:103F90008299E30265F1050A5C443247998FE34553
:103FA000FAFEE9BF014A930A94017D5BF5B793F5E8
:103FB000F50F2A966314C5000145828083470500EA
:103FC000E38DB7FE0505FDB763F3A504B386C50011
:103FD000637FD5029345F6FF8147FD176393F50094
:103FE00082803387F600034807003307F6002A97DC
:103FF00023000701DDB73387F50083460700330749
:10400000F50085072300D700E317F6FE828081477D
:10401000E5BFCDC183A7C5FF011122CC06CE138415
:10402000C5FF63D307003E942AC6F52283A7C19734
:1040300032453A8689EB2322040023AE81966244FE
:10404000F2400561D1AA637FF40014403307D40025
:104050006396E7009843DC43369718C05CC023AEF4
:104060008196F1BF3E87DC4399C3E37DF4FE1443A0
:104070003306D700631F86001040B29614C3330680
:10408000D700E39EC7FA9043DC43B29614C35CC3E7
:104090007DB76375C400B1471CC155B71040B30666
:1040A000C4006396D7009443DC43B29614C05CC04E
:1040B00040C371B78280011126CA93843500F198FC
:1040C0004AC806CE22CC4EC6A104B1472A8963F164
:1040D000F404B14463E0B4044A85352A03A7C197C8
:1040E0009386C1973A8431E0138401981C4089E794
:1040F00081454A85E52808C0A6854A85C528FD5919
:1041000063183507B1472320F9004A85312231A0D1
:10411000E3D204FCB1472320F9000145F240624498
:10412000D2444249B249056182801C40858F63CEEA
:1041300007022D466376F6001CC03E9404C029A0F9
:104140005C40631287029CC24A85F9201305B400C3
:104150009307440061993307F540E301F5FC3A9475
:10416000898F1CC065BF5CC3C5B722874040A5BF0F
:10417000130435007198E30385FCB305A4404A8518
:10418000B520E31D35FBBDBF011122CC06CE26CAEA
:104190004AC84EC6328491E96244F240D244424950
:1041A000B249B28505616FF01FF101EEEFF07FE6D5
:1041B0008144F24062444249B2492685D2440561B5
:1041C00082802E89AA899128CA84E37485FEA285FB
:1041D0004E85EFF05FEEAA8469DDCA852286EFF096
:1041E0002FC5CA854E85EFF0DFE2E1B7411122C449
:1041F00026C22A842E8506C623A801A08128FD5741
:104200006316F50083A701A191C31CC0B2402244EC
:104210009244410182808280828083A7C5FF1385FA
:10422000C7FF63D50700AA959C413E958280411146
:1042300006C6EFE01FC113057005EFE05FD3EFE0A6
:104240009FD5B24041016FB0DFFD828013870187A7
:10425000AA870843938681A1AA9763EAD700B78605
:1042600000209386068063E4F6001CC382807D559F
:104270008280411126C2B744014022C49375F50FD4
:104280002A841385048006C693840480EFF0EF8BA4
:104290009D452685EFF06F8D65DDB2402285224475
:1042A000924441018280011122CC26CA4AC84EC6DE
:1042B00006CEB2842E843389C500A949631A24012D
:1042C000F24062444249B2492685D2440561828067
:1042D00003450400EFF0FFF98347040063953701BD
:1042E0003545EFF01FF90504D1BF397122DC26DA1C
:1042F0004AD806DE2A84552003A94187FD57AA849F
:10430000630EF900A2852285EF20E06401E99305A0
:1043100000002285EF20A00763490500F250625497
:1043200042592685D2542161828085473EC4B71701
:1043300000089387470C22853EC602D4EF2050190F
:104340002ACC2ECE2AC82ECA630E09020146814607
:104350003285B685312F2AD02ED289476316F902CD
:10436000192A930710021CC1A25785E702559255DE
:10437000EF20701FF2506254AA8442592685D2540D
:104380002161828002D002D22800E52071D9A25793
:10439000F1DFD520A2571CC1D1BF41111317150061
:1043A00022C406C605833706807F2A84AA856376E1
:1043B000C7083DCFAA866340050A698E93577541A9
:1043C00011EEB705800033F4A5004DE08606139684
:1043D000860022870504E35B06FE998F370680007E
:1043E0009305F6FF138717F8ED8ED18E137617001D
:1043F0009397160031EE13581740E5460145814565
:10440000370700013386E500FD1663C6C700B30514
:10441000E600918F3A9586070583EDF699C3050569
:1044200079990585B705003FAA9593177801BE9540
:10443000B24022442E8541018280EF10D07CA285BB
:10444000EF109017B2402244AA852E854101828048
:10445000939726004DB7EF20001DAA85EF10104757
:10446000B2402244AA852E85410182807D57998FD2
:10447000B5B701458280B707002003A547068280B3
:10448000370810007D180111B377B80013D7450124
:104490003378D80093D8460122CC8E071374F77F67
:1044A0001357D50126CAD98F93D4F5011357D601D6
:1044B00093F8F87F93D5F6010E0806CE4AC84EC68B
:1044C0000E05336707010E06B30614416395B42247
:1044D0006351D00E63980802B365C700638B052053
:1044E0009385F6FF89E92A963335A600BA97AA97ED
:1044F00032850544B1A81308F07F639D06011304BB
:10450000F07F71AA9305F07F630BB418B7058000A4
:104510004D8FB6859306800363C9B608FD4663C018
:10452000B606130800023308B840B3160701B358A3
:10453000B60033160601B3E616013336C000558EB9
:104540003357B7002A963E97B337A600BA973285FD
:10455000139787006355071405041307F07F63055D
:10456000E448B70680FFFD16FD8E935515000589BA
:104570009397F6014D8D5D8D93D716000DA293860E
:1045800005FE93080002B356D70001486388150161
:1045900013080004B305B8403318B7003366C800E9
:1045A0003336C000558E014771BF598E3336C00077
:1045B000DDBFD5CAB38588400DE4B3E6A700638CA0
:1045C00006409386F5FF99E63295BA973336C500D3
:1045D000B29705B71308F07F639D0501BA8732854E
:1045E00039BF9306F07FE38BD8FEB7068000D58FE6
:1045F000AE869305800363C4D506FD4563CBD50223
:10460000130800023308D8403353D500B39507018F
:1046100033150501B3E565003335A0004D8DB3D6E4
:10462000D7003295B387E6003336C500B29746848B
:1046300005B7938506FE13030002B3D5B700014802
:104640006388660013080004B306D8403398D70087
:104650003365A8003335A0004D8D8146D9B75D8DF7
:104660003335A000DDBF9306140093F5E67FBDE16E
:10467000B3E6A70029E463840636B366C70085C2A3
:104680002A96BA973335A600AA97139787003285E2
:1046900063570700370780FF7D17F98F05441377AD
:1046A0007500630507341377F50091466300D7342E
:1046B0009306450033B5A600AA97368505AE99DE68
:1046C000598EE30E06E28144B7074000014513040A
:1046D000F07F29AE9305F07F6386B6302A963E9729
:1046E000B337A6003E971315F7010582518D9357F6
:1046F000170036846DB76356D00C63910808B36514
:10470000C700E5D99385F6FF91E93306C5403335F7
:10471000C500998F898F32850544B1A01308F07FB9
:10472000E38F06DD9306800363C9B608FD4663C0C8
:10473000B606130800023308B840B3160701B35891
:10474000B60033160601B3E616013336C000558EA7
:104750003357B7003306C5403387E740B337C5004A
:10476000B307F740328513978700E35A07F23709FA
:1047700080007D1933F92701AA8975A29305F07F7E
:10478000E30FB4F0B70580004D8FB68561BF938607
:1047900005FE93080002B356D7000148638815014F
:1047A00013080004B305B8403318B7003366C800D7
:1047B0003336C000558E014771BF598E3336C00065
:1047C000DDBFF9C23388884015E8B3E6A700638FE0
:1047D00006269306F8FF91EA3305A640B307F74093
:1047E0003336A600918FAE8405BF1303F07F631F9D
:1047F0006800BA8732851304F07F7DA09306F07FAE
:10480000E389D8FEB7068000D58FC28613088003DF
:104810006348D8067D48634ED80213030002330371
:10482000D340335ED5003398670033156500336895
:10483000C8013335A0003365A800B3D6D7003305CF
:10484000A640B307D7403336A600918F4684AE8486
:1048500019BF138806FE130E000233D80701014367
:104860006388C60113030004B306D3403393D70013
:104870003365A3003335A0003365A8008146C1B776
:104880005D8D3335A000DDBF9306140093F6E67FFF
:10489000B5E633E8A700B366C70031E46318080043
:1048A000638A061ABA873285AE84D5BBE38906DEF1
:1048B0003308C540B3380501B386E740B3861641D7
:1048C0009398860063DA08003305A640B307F740E3
:1048D0003336A600918FC9BF3365D8006300051831
:1048E000B68742856DBB63180800638B0616BA87CE
:1048F0003285AE8429B1E38406C0F1B3B309C54063
:10490000B33635013389E7403309D940931689001E
:1049100063D80606B309A640B307F740333636011D
:104920003389C740AE84630309064A85EF20005BE4
:10493000130785FFFD4763C1E70693060002998EC2
:10494000B317E900B3D6D900DD8E3395E900634E85
:104950008706018F930717007D466345F60413070A
:1049600000021D8FB355F5003396E6003315E500C0
:104970004D8E3335A000518DB3D7F600014405B3F9
:1049800033E529014DF181470144F9A04E85EF201F
:10499000E0541305050269BF130585FDB396A90010
:1049A000014575B705179305000233D7E6000146A8
:1049B0006387B700130600041D8E3396C600518D21
:1049C0003335A000598D814755BFB70780FFFD17CC
:1049D000198CF58FE9B1BA8732852E84C9B1BA87AF
:1049E000328575B91304F07F81470145139787001D
:1049F000635B070005041307F07F6308E4063707CD
:104A000080FF7D17F98F1397D7010D81598D1307FB
:104A1000F07F8D836319E4005D8D814709C5B70779
:104A200008000145814413174401B706F07FB2071F
:104A3000F2406244758FB183FE04D98F33E797004B
:104A40004249D244B249BA8505618280BA8732852B
:104A5000428499BD81470145814449BF8147EDBFEB
:104A600001458144B70740009DB18147014561BFC1
:104A7000797193D7450126D24AD052CC5EC662C422
:104A80009394C50006D622D44ECE56CA5AC8139760
:104A900057012A89B28B368CB18013DAF50149C7E8
:104AA00093FAF77F9307F07F638AFA0C9359D50145
:104AB0008E04B3E49900B7098000B3E934011314FC
:104AC0003500938A1AC0014B93574C019314CC00C4
:104AD00013975701B18093F5F77F135CFC0171C305
:104AE0009307F07F638AF5101395340093D7DB01A9
:104AF0005D8DB7048000C98C939F3B00138515C062
:104B0000014693172B00D18FFD173947B3468A0111
:104B1000B385AA406364F710371700088A071307A4
:104B2000C70CBA979C438287B3E9A4006382090645
:104B30009DC82685EF20803A930755FF714763494A
:104B4000F702F549130485FFB389F940B394840053
:104B5000B3593901B3E99900331489009305D0C0E2
:104B6000B38AA5408DB7EF20603713050502E9B77A
:104B7000930485FDB31999000144CDB7B3E9A400AE
:104B8000638C09002A84A689930AF07F0D4B2DBF00
:104B90000144814A054B0DBF0144930AF07F094B44
:104BA00025B7B3EF740163820F069DC82685EF20F9
:104BB000E032AA85938755FF71476349F702F546AE
:104BC000938F85FF9D8E3395F401B3D6DB00B3E45C
:104BD000A600B39FFB011307D0C03305B7400DB744
:104BE0005E85EF20A02F93050502E9B7138585FDAB
:104BF000B394AB00814FC5B7B3EF7401638B0F0063
:104C0000DE8F1305F07F0D46EDBD8144014505465D
:104C1000CDBD81441305F07F0946E5B563E6340157
:104C20006396992A6364F42B1396F90113571400C1
:104C30009317F40193D919003364E60013958400A7
:104C400093D88F01B3E8A800418133D8A902939E7D
:104C5000080193DE0E011357040113938F00B3F480
:104C6000A902C28F33860E0393990401336737017B
:104C7000637CC7004697930FF8FF6367170163755E
:104C8000C700930FE8FF4697118F335EA7024204D7
:104C900041803377A70272863388CE034207418F63
:104CA000637C070146971306FEFF63671701637570
:104CB00007011306EEFF469733040741C20F416810
:104CC000B3EFCF00130EF8FF13D60F0133F7CF0168
:104CD000135F0301337EC301B303EE02B304C603C3
:104CE0003307EF02B302E6033306970013D703013D
:104CF000329763739700C292135607011696C162EA
:104D0000FD12337857004208B3F353001E986367CF
:104D1000C400FE84631EC40263FC07039A9733B782
:104D2000670046973A949384FFFF63E68800639197
:104D3000880263EF67006366C400631B860063F943
:104D400007019A9733B7670046979384EFFF3A9429
:104D500033880741118CB3B707011D8CFD5F638752
:104D6000880EB35FA402135708013374A4027E8631
:104D7000B387FE034204598C637CF4004694138687
:104D8000FFFF636714016375F4001386EFFF469419
:104D90001D8C3357A4024208135808013374A4022F
:104DA000BA87B38EEE02420433648800637CD40178
:104DB00046949307F7FF636714016375D401930763
:104DC000E7FF469442065D8E93170601C183135791
:104DD00006013308EF023304D441330FFF02B38ED0
:104DE000C703330EC70393D70E01729FFA9763F47C
:104DF000C70141673A9813D70701429741687D1868
:104E000033F507014205B3FE0E0176956366E400B3
:104E10006310E41AB28F1DC94694930FF6FF6361C5
:104E200014036366E4006314E418637DA30093171E
:104E3000130033B367009A98930FE6FF46943E83BE
:104E40006314E4006304650093EF1F009387F53F4C
:104E5000635BF00A13F77F0001CF13F7FF001146E1
:104E60006308C70013864F00B33FF601FE94B28F6C
:104E70001397740063580700B70700FFFD17FD8CF8
:104E8000938705401307E07F6342F70693DF3F00F7
:104E90001397D4013367F70113D53400D2073706CF
:104EA000F07F3205B2502254F18F31815D8DFE06C4
:104EB000B367D50092540259F249624AD24A424B32
:104EC000B24B224C3A85BE8545618280FD158147F3
:104ED000B5B3D286CE84A28F5A868D47630BF60A6D
:104EE0008547630FF60A8947E312F6F60145014745
:104EF0009307F07F65B7E286CDB7B7040800814F0E
:104F000081460D46D9BF05451D8D130780036349B2
:104F1000A7087D476349A7049385E541B397B4008B
:104F200033D7AF00B395BF00D98FB335B000CD8F65
:104F300033D5A40013F7770001CF13F7F70011461C
:104F40006308C70013874700B337F7003E95BA8759
:104F500013178500634907041317D5018D835D8FEF
:104F60000D81814725BF0557B307F740130600029F
:104F7000B3D7F40001476306C5009385E543339733
:104F8000B400B36FF701B33FF001B3E7F701014598
:104F900055B73705080001479307F07F8146FDBDEF
:104FA000014501477DBF014501478547C5BD7E8657
:104FB000B28F59BD370710007D1713D84501B3785C
:104FC000B700AA872A831378F87F13D5F501930ECB
:104FD000F07F93D54601758F328E93F5F57FFD8274
:104FE0006318D801B3EEF80063840E067955828009
:104FF0006396D501B36EC700E39A0EFE631C0804E6
:10500000B3E7F80093B7170099E1598E0DCE81EB05
:105010006314D50063D905010DC57D5582807D558A
:1050200091C6368582806354B80065D98280E36575
:1050300017FF639CE800E3616EFEE368C3FF014570
:10504000828005458280E5FFC1BFE3E0E8FEC5BF81
:10505000E38205FBD5FD81474DBF370710007D1763
:1050600013D84501B378B700AA872A831378F87F4D
:1050700013D5F501930EF07F93D54601758F328ECF
:1050800093F5F57FFD826318D801B3EEF8006384D1
:105090000E06094582806396D501B36EC700E39A78
:1050A0000EFE631C0804B3E7F80093B7170099E1FC
:1050B000598E0DCE81EB6314D50063D905010DC562
:1050C0007D5582807D5591C6368582806354B800B7
:1050D00065D98280E36517FF639CE800E3616EFE9B
:1050E000E368C3FF0145828005458280E5FFC1BFBB
:1050F000E3E0E8FEC5BFE38205FBD5FD81474DBF78
:10510000797193D7450122D426D24ECE52CC56CABD
:105110009394C50006D64AD05AC85EC61397570165
:105120002A84B289B68AB18013DAF50159C313FB18
:10513000F77F9307F07F6306FB0C9357D5018E042E
:10514000DD8CB7078000DD8C13193500130B1BC0F5
:10515000814B93D74A011394CA00139757013180AA
:1051600013F5F77F93DAFA015DCF9307F07F6304BD
:10517000F51093D7D9010E045D8CB70780005D8CC4
:10518000130515C093973900014793962B00D98ECC
:105190005A95FD16394833465A0193051500636D3B
:1051A000D80E371500088A0613058510AA96944272
:1051B000828633E9A400630F09048DC82685EF10A9
:1051C000F051130755FFF14763C7E702F54713098D
:1051D00085FF998FB3942401B357F400DD8C331904
:1051E0002401130BD0C0330BAB409DB7EF10104F11
:1051F00013050502F9B7930485FDB3149400014922
:10520000CDB733E9A400630B09002A89130BF07FA3
:105210008D4B81B78144014B854B25BF8144130BD6
:10522000F07F894B3DB7B3673401B1CF0DC82285FC
:10523000EF10D04A930655FFF14763C8D702754770
:10524000930785FF158F3314F40033D7E900598C89
:10525000B397F9001307D0C03305A74035B74E8583
:10526000EF10D04713050502F1B7130485FD339401
:1052700089008147C5B7B367340191CBCE87130549
:10528000F07F0D4719B7014401450547FDBD0144B5
:105290001305F07F0947D5BD416F1307FFFF9356F4
:1052A000090113D307013379E900F98FB308230308
:1052B0003308F902B38FF602B38EF8019358080150
:1052C000F698338E660263F3F8017A9E93D2080152
:1052D000B3F8E8003378E800135F0401C208798C62
:1052E000C298338786023308890233092F03B30E2D
:1052F000E900135908017699B386E6036374E9005F
:105300004167BA96935E0901B69EC166938FF6FF18
:105310003379F9013378F80113D704014209B3F462
:10532000F401B38397024299CA9233089302B307F8
:10533000F702B30FE3023303F80013D803011A98FE
:105340006373F800B69F93570801C166BE9F9387A9
:10535000F6FF3378F800B3F7F300B3039402420882
:105360003E9833048702B3049F023303EF02A294F2
:1053700013D70301BA9463F384003693C167FD1712
:10538000B3F6F400C206B3F7F300169EBE963339A7
:105390002E01F69633872601429E33380E01330FD5
:1053A000F701B3020F01B3B6D60133372701558F8A
:1053B00033B80201C180B33FFF01269733E80F01E4
:1053C00093179E0042971A97B3E717012607B33742
:1053D000F000135E7E0113D47201B3E7C701A60289
:1053E00093167700598CB3E7570063DA060A13D790
:1053F0001700858BD98F1317F401D98F05809386F9
:10540000F53F6350D00A13F7770001CF13F7F70089
:1054100011456308A70013874700B337F7003E9490
:10542000BA871317740063580700370700FF7D170A
:10543000798C938605401307E07F634ED70E13D710
:1054400037009317D401D98F0D801397460132048A
:10545000B706F07F758F3180598C7E06B250336766
:10546000C400225492540259F249624AD24A424B31
:10547000B24B3E85BA854561828052862684CA87B2
:105480005E8789466309D70A8D46630FD70885462C
:10549000E317D7F6014481479DA05686DDB7AA855C
:1054A000B9BF0545158D13078003E345A7FE7D476A
:1054B0006349A7049385E5413317B400B3D6A70029
:1054C000B397B700558FB337F000D98F3354A4008A
:1054D00013F7770001CF13F7F70091466308D70061
:1054E00013874700B337F7003E94BA871317840039
:1054F000634807041317D4018D83D98F0D8081462B
:10550000A9B70557158F130800023357E4008146E9
:10551000630605019385E543B316B400D58FB33711
:10552000F000D98F01446DB7370408008147930616
:10553000F07F014619BF014481479306F07F31B7E0
:1055400001448147854611B7370810007D180111C5
:10555000B377B80013D745013378D80093D8460104
:1055600022CC8E071374F77F1357D50126CAD98F23
:1055700093D4F5011357D60193D5F6010E0806CE44
:105580004AC84EC693F8F87F9306F07F0E0533673E
:1055900007010E066395D800B366C70099E293C56C
:1055A00015003308144163939522635C000F6395E3
:1055B0000804B366C7008DC21308F4FF631A08001D
:1055C0002A963335A600BA97AA973285054495A83E
:1055D0009306F07F6319D402137775006305074EB5
:1055E0001377F50091466300D74E9306450033B517
:1055F000A600AA973685C1A99306F07FE30ED4FCD6
:10560000B7068000558F9306800363C80609FD46E0
:1056100063C0060793050002B3850541B316B700C2
:10562000B35806013316B600B3E616013336C00090
:10563000558E335707012A963E97B337A600BA977F
:10564000328513978700E35907F805041307F07FA5
:105650006309E446B70680FFFD16FD8E93551500DD
:1056600005899397F6014D8D5D8D93D71600ADB7E3
:10567000930608FE93080002B356D70081456308DD
:1056800018019305000433880541B31507014D8EB9
:105690003336C000558E014779BF598E3336C0006E
:1056A000DDBF630B080AB38588400DE4B3E6A700AD
:1056B000638006409386F5FF99E63295BA973336B4
:1056C000C500B29721B71308F07F639D0501BA8723
:1056D0003285EDAC9306F07FE38BD8FEB7068000F1
:1056E000D58FAE869305800363C4D506FD4563CB95
:1056F000D502130800023308D8403353D500B395C0
:10570000070133150501B3E565003335A0004D8D64
:10571000B3D6D7003295B387E6003336C500B297CB
:10572000468405B7938506FE13030002B3D5B70080
:1057300001486388660013080004B306D840339814
:10574000D7003365A8003335A0004D8D8146D9B709
:105750005D8D3335A000DDBF9306140093F5E67F21
:10576000A9E5B3E6A7001DE463880634B366C70065
:10577000E38406E62A96BA973335A600AA971397CC
:1057800087003285E35A07E4370780FF7D17F98FDA
:10579000054499B58DDE598E630A06228144B70708
:1057A000400001451304F07F39AE9305F07F638814
:1057B000B6302A963E97B337A6003E971315F701E9
:1057C0000582518D93571700368439B56356000D05
:1057D00063930808B366C700E38006E01308F4FF8C
:1057E000631B08003306C5403335C500998F898F88
:1057F00032850544B1A09306F07FE30FD4DC930615
:10580000800363C70609FD4663CF060593050002C2
:10581000B3850541B316B700B35806013316B60079
:10582000B3E616013336C000558E335707013306F1
:10583000C5403387E740B337C500B307F74032852B
:1058400013978700E35A07D8370980007D1933F989
:105850002701AA8975A29306F07FE30FD4D6B70675
:105860008000558F69BF930608FE93080002B35667
:10587000D70081456308180193050004338805416A
:10588000B31507014D8E3336C000558E014745B71D
:10589000598E3336C000DDBF6304080C338888405E
:1058A00015E8B3E6A700638006289306F8FF91EA9F
:1058B0003305A640B307F7403336A600918FAE8478
:1058C0000DBF1303F07F631F6800BA87328513048E
:1058D000F07F7DA09306F07FE389D8FEB7068000B5
:1058E000D58FC286130880036348D8067D48634E6F
:1058F000D802130300023303D340335ED50033983C
:105900006700331565003368C8013335A00033657F
:10591000A800B3D6D7003305A640B307D740333627
:10592000A600918F4684AE8421BF138806FE130E15
:10593000000233D8070101436388C6011303000442
:10594000B306D3403393D7003365A3003335A000AB
:105950003365A8008146C1B75D8D3335A000DDBF3A
:105960009306140093F6E67FBDE633E8A700B3661E
:10597000C70031E463180800638B061ABA873285C2
:10598000AE8499B9E38A06C43308C540B33805012B
:10599000B386E740B38616419398860063DA080021
:1059A0003305A640B307F7403336A600918FC9BF31
:1059B0003365D80063010518B687428531B9631A8B
:1059C0000800638C0616BA873285AE841304F07F14
:1059D00021B1EDDEE1B3B309C540B33635013389FA
:1059E000E7403309D9409316890063D80606B30906
:1059F000A640B307F740333636013389C740AE843B
:105A0000630309064A85EF10604D130785FFFD47C4
:105A100063C1E70693060002998EB317E900B3D677
:105A2000D900DD8E3395E900634E8706018F930719
:105A300017007D466345F604130700021D8FB3551A
:105A4000F5003396E6003315E5004D8E3335A000A2
:105A5000518DB3D7F600014441B633E529014DF12C
:105A600081470144F9A04E85EF1040471305050218
:105A700069BF130585FDB396A900014575B70517E4
:105A80009305000233D7E60001466387B70013068B
:105A900000041D8E3396C600518D3335A000598DFC
:105AA000814755BFB70780FFFD17198CF58F2DB6BD
:105AB000BA8732852E840DB6BA87328531BE13047B
:105AC000F07F8147014513978700635B070005045A
:105AD0001307F07F6308E406370780FF7D17F98F0F
:105AE0001397D7010D81598D1307F07F8D836319AB
